:100000000C9452010C947A010C947A010C947A01AC
:100010000C947A010C947A010C947A010C947A0174
:100020000C947A010C947A010C947A010C947A0164
:100030000C947A010C947A010C947A010C947A0154
:100040000C94BA050C947A010C942A060C940406BC
:100050000C947A010C945C060C947A010C947A014D
:100060000C947A010C947A01000000000000005FFB
:1000700000000007000700147F147F14242A7F2A41
:10008000122313086462364955225000050300000C
:10009000001C2241000041221C0014083E081408E4
:1000A000083E0808005030000008080808080060F2
:1000B00060000020100804023E5149453E00427F86
:1000C000400042615149462141454B311814127F8D
:1000D0001027454545393C4A494930017109050316
:1000E0003649494936064949291E0036360000007E
:1000F0005636000008142241001414141414004150
:100100002214080201510906324979413E7E11113B
:10011000117E7F494949363E414141227F4141227A
:100120001C7F494949417F090909013E4149497AF2
:100130007F0808087F00417F41002040413F017F48
:10014000081422417F404040407F020C027F7F0420
:1001500008107F3E4141413E7F090909063E415159
:10016000215E7F09192946464949493101017F012C
:10017000013F4040403F1F2040201F3F4038403F4C
:100180006314081463070870080761514945430068
:100190007F41410002040810200041417F00040219
:1001A0000102044040404040000102040020545439
:1001B00054787F48444438384444442038444448C0
:1001C0007F3854545418087E0901020C5252523E92
:1001D0007F0804047800447D40002040443D007FB7
:1001E0001028440000417F40007C041804787C08FB
:1001F00004047838444444387C1414140808141453
:10020000187C7C080404084854545420043F44409B
:10021000203C4040207C1C2040201C3C4030403C86
:1002200044281028440C5050503C4464544C440022
:100230000836410000007F00000041360800100829
:100240000810080000000000000000002300260045
:10025000290000000008000201000003040700005C
:1002600000000000000000000000250028002B0016
:1002700000000000240027002A00040404040404F1
:100280000404020202020202030303030303010245
:100290000408102040800102040810200102040814
:1002A00010205A0911241FBECFEFD8E0DEBFCDBF0A
:1002B00011E0A0E0B1E0ECE7FCE102C005900D9296
:1002C000AC38B107D9F722E0ACE8B1E001C01D922B
:1002D000A739B207E1F711E0C2E5D1E004C02197E8
:1002E000FE010E94360EC135D107C9F70E94990957
:1002F0000C943C0E0C94000090E0FC01E257FD4F82
:10030000249186589D4FFC018491882399F090E0B8
:10031000880F991FFC01E059FD4FA591B491FC0194
:10032000EA59FD4F859194918FB7F894EC91E22BA7
:10033000EC938FBF0895833081F028F4813099F0D9
:100340008230A9F008958730A9F08830C9F0843050
:10035000B1F4809180008F7D03C0809180008F7701
:1003600080938000089584B58F7784BD089584B507
:100370008F7DFBCF8091B0008F778093B000089580
:100380008091B0008F7DF9CFCF93DF93282F30E09D
:10039000F901EE5AFD4F8491F901E257FD4FD491D6
:1003A000F901E658FD4FC491CC23A1F081110E94C0
:1003B0009B01EC2FF0E0EE0FFF1FE85BFD4FA591D6
:1003C000B491EC91ED2381E090E009F480E0DF91BD
:1003D000CF91089580E090E0FACF1F93CF93DF9301
:1003E000282F30E0F901EE5AFD4F8491F901E257D0
:1003F000FD4FD491F901E658FD4FC491CC23A9F0EB
:10040000162F81110E949B01EC2FF0E0EE0FFF1FD1
:10041000EA59FD4FA591B4918FB7F894EC91111161
:1004200008C0D095DE23DC938FBFDF91CF911F9161
:100430000895DE2BF8CF3FB7F8948091A8019091F2
:10044000A901A091AA01B091AB0126B5A89B05C056
:100450002F3F19F00196A11DB11D3FBFBA2FA92F43
:10046000982F8827BC01CD01620F711D811D911D40
:1004700042E0660F771F881F991F4A95D1F70895AC
:100480008F929F92AF92BF92CF92DF92EF92FF92A4
:100490000E941B024B015C0184E6C82ED12CE12C8A
:1004A000F12C0E941B02681979098A099B09683E90
:1004B000734081059105A8F321E0C21AD108E10833
:1004C000F10888EE880E83E0981EA11CB11CC114AF
:1004D000D104E104F10429F7FF90EF90DF90CF9071
:1004E000BF90AF909F908F900895AF92BF92CF92A0
:1004F000DF92EF92FF920F931F93CF93DF936C01E4
:100500007B018B01040F151FEB015E01AE18BF08C4
:10051000C017D10759F06991D601ED91FC91019076
:10052000F081E02DC6010995892B79F7C501DF918E
:10053000CF911F910F91FF90EF90DF90CF90BF90E0
:10054000AF900895FC01538D448D252F30E0842F0A
:1005500090E0821B930B541710F0CF9608950197EB
:100560000895FC01918D828D981761F0A28DAE0FD8
:10057000BF2FB11D5D968C91928D9F5F9F73928F5F
:1005800090E008958FEF9FEF0895FC01918D828D8B
:10059000981731F0828DE80FF11D858D90E0089558
:1005A0008FEF9FEF0895FC01918D228D892F90E0B0
:1005B000805C9F4F821B91098F73992708958CEA65
:1005C00091E00E94D30221E0892B09F420E0822FE0
:1005D000089580E090E0892B29F00E94DF028111CC
:1005E0000C9400000895FC01A48DA80FB92FB11D33
:1005F000A35ABF4F2C91848D90E001968F73992759
:10060000848FA689B7892C93A089B1898C91837036
:1006100080648C93938D848D981306C00288F3892F
:10062000E02D80818F7D80830895EF92FF920F935C
:100630001F93CF93DF93EC0181E0888F9B8D8C8D8E
:1006400098131AC0E889F989808185FF15C09FB782
:10065000F894EE89FF896083E889F9898081837045
:10066000806480839FBF81E090E0DF91CF911F91F4
:100670000F91FF90EF900895F62E0B8D10E00F5F15
:100680001F4F0F731127E02E8C8D8E110CC00FB6EB
:1006900007FCFACFE889F989808185FFF5CFCE0183
:1006A0000E94F302F1CFEB8DEC0FFD2FF11DE35A09
:1006B000FF4FF0829FB7F8940B8FEA89FB89808106
:1006C0008062CFCFCF93DF93EC01888D8823B9F080
:1006D000AA89BB89E889F9898C9185FD03C080814D
:1006E00086FD0DC00FB607FCF7CF8C9185FFF2CFCA
:1006F000808185FFEDCFCE010E94F302E9CFDF912B
:10070000CF910895089590E080E00895FB01019055
:100710000020E9F73197AF01461B570BDC01ED9143
:10072000FC910280F381E02D09948F929F92AF9209
:10073000BF92EF92FF920F931F93CF93DF93CDB7AA
:10074000DEB7A1970FB6F894DEBF0FBECDBF7C0118
:10075000FA01CB0119A2223008F42AE08E010F5DC4
:100760001F4F822E912CB12CA12CBF01A501940109
:100770000E94000EF901CA016A300CF5605DD801D3
:100780006E938D01232B242B252B79F790E080E0AD
:10079000109721F0BD01C7010E948603A1960FB6F4
:1007A000F894DEBF0FBECDBFDF91CF911F910F91A7
:1007B000FF90EF90BF90AF909F908F900895695CED
:1007C000DECF0C9486032F923F924F925F926F92EE
:1007D0007F928F929F92AF92BF92CF92DF92EF92D1
:1007E000FF921F93CF93DF93EC016A017B01722E7E
:1007F000AB019601CB01B6010E94E70D6EE371E0FB
:10080000811126C046015701E894B7F82FEF3FEF5A
:100810004FE75FE7C501B4010E94E70D81110CC0ED
:100820002FEF3FEF4FE75FE7C501B4010E941D0CBA
:1008300062E471E0181664F02FEF3FEF4FE75FE4DA
:10084000C701B6010E94750D1816B4F466E471E094
:10085000CE01DF91CF911F91FF90EF90DF90CF906D
:10086000BF90AF909F908F907F906F905F904F90D0
:100870003F902F900C9486032FEF3FEF4FE75FECF4
:10088000C701B6010E941D0C87FDE0CF20E030E0DB
:10089000A901C701B6010E941D0C312C212C87FF34
:1008A0000DC0E881F9810190F081E02D6DE2CE016B
:1008B00009951C01F7FAF094F7F8F09410E060E065
:1008C00070E080E09FE3711641F020E030E040E20C
:1008D00051E40E94220C1F5FF6CFA70196010E94EF
:1008E000B10B2B013C010E94940C4B015C012AE0EE
:1008F000BC01A401CE010E9495037C01E20CF31C13
:100900001123E1F1C501B4010E94C30C9B01AC01AC
:10091000C301B2010E94B00B4B015C01E881F98177
:100920000190F081E02D6EE2CE010995E80EF91EEE
:10093000115020F120E030E040E251E4C501B40163
:100940000E947A0D2B013C010E94940C4B01B12CAA
:10095000A12C2AE0B501A401CE010E949503E80E66
:10096000F91EC501B4010E94C30C9B01AC01C30177
:10097000B2010E94B00B4B015C01DACFC701DF91DD
:10098000CF911F91FF90EF90DF90CF90BF90AF90ED
:100990009F908F907F906F905F904F903F902F909F
:1009A000089522E00C94E303EF92FF920F931F93BC
:1009B000CF93DF93EC01042F8E810E94ED0160E064
:1009C00088850E94ED01FC80ED8018E0602F661F95
:1009D0006627661F8E2D0E94ED01000F61E08F2DAE
:1009E0000E94ED0160E08F2D0E94ED01115071F722
:1009F00061E08885DF91CF911F910F91FF90EF907B
:100A00000C94ED01CF93DF93C9E4D2E01C8690E013
:100A10006B8529E3629F612D1124669570E06F5FFD
:100A20007F4F0E94EC0D8D8740E860E0CE010E9470
:100A3000D4044D85406460E0CE01DF91CF910C94E9
:100A4000D404CF93DF9380E00E940205D0E0C0E0A1
:100A50008091540286958695869590915302899F40
:100A6000C0011124C817D90740F440E061E089E4CF
:100A700092E00E94D4042196EBCF80E0DF91CF91E9
:100A80000C940205CF92DF92EF92FF920F931F9387
:100A9000CF93DF9300D000D01F92CDB7DEB767FDB4
:100AA00066C07C01862F90E0603208F44FC08097CA
:100AB00025E0289FB001299F700D112468597F4FB0
:100AC00045E050E0CE0101960E94A70B8E010F5F1A
:100AD0001F4F680185E0C80ED11CF80141918F01BC
:100AE00061E0C7010E94D4040C151D05B1F740E078
:100AF00061E0C7010E94D404F701848590E0069666
:100B0000628570E00E94EC0D8487892B79F48585DD
:100B100090E00196638529E3629F612D112466951B
:100B200070E06F5F7F4F0E94EC0D858781E090E061
:100B30000F900F900F900F900F90DF91CF911F911A
:100B40000F91FF90EF90DF90CF900895FC013796C2
:100B5000EE0FFF1FEE0DFF1D008111810115110524
:100B600009F0B7CF45E050E068E670E0ABCF90E029
:100B700080E0DECF1F920F920FB60F9211242F93B9
:100B80003F938F939F93AF93BF938091A4019091D4
:100B9000A501A091A601B091A7013091A30123E086
:100BA000230F2D3758F50196A11DB11D2093A301E8
:100BB0008093A4019093A501A093A601B093A701EF
:100BC0008091A8019091A901A091AA01B091AB01D7
:100BD0000196A11DB11D8093A8019093A901A09336
:100BE000AA01B093AB01BF91AF919F918F913F91BB
:100BF0002F910F900FBE0F901F90189526E8230F8E
:100C00000296A11DB11DD2CF1F920F920FB60F9267
:100C100011242F933F934F935F936F937F938F9301
:100C20009F93AF93BF93EF93FF938CEA91E00E9461
:100C3000F302FF91EF91BF91AF919F918F917F91BF
:100C40006F915F914F913F912F910F900FBE0F9039
:100C50001F9018951F920F920FB60F9211242F9389
:100C60008F939F93EF93FF93E091BC01F091BD01AF
:100C70008081E091C201F091C30182FD1BC090818F
:100C80008091C5018F5F8F732091C601821741F05B
:100C9000E091C501F0E0E455FE4F958F8093C501CA
:100CA000FF91EF919F918F912F910F900FBE0F9019
:100CB0001F9018958081F4CF1F920F920FB60F925C
:100CC00011248F929F92AF92BF92CF92DF92EF92B8
:100CD000FF922F933F934F935F936F937F938F93E5
:100CE0009F93AF93BF93CF93EF93FF93609178005F
:100CF00070917900072E000C880B990B0E94C50C8F
:100D000026E030E340E45DE30E947A0D20E030E02D
:100D100040EC51E40E94B00B6B017C01C0928F014A
:100D2000D0929001E0929101F0929201C0917C00EA
:100D3000C0938E0182E00E94C401019709F0E9C1CD
:100D400021E834E045E35FE3C701B6010E947A0D74
:100D50004B015C01C111DBC0AC019B0160911C0126
:100D600070911D0180911E0190911F010E941D0C28
:100D700087FFB6C080921C0190921D01A0921E01B7
:100D8000B0921F0120E030E040EA51E4C701B60113
:100D90000E94750D87FDE2C161E088E00E94ED01CF
:100DA00080918D018F5F80938D01811170C0809142
:100DB0008C01823009F066C080910C0190910D0188
:100DC000A0910E01B0910F0180931C0190931D0121
:100DD000A0931E01B0931F01809108019091090119
:100DE000A0910A01B0910B01809318019093190111
:100DF000A0931A01B0931B01809104019091050109
:100E0000A0910601B0910701809314019093150100
:100E1000A0931601B09317018091000190910101F8
:100E2000A0910201B09103018093100190931101F0
:100E3000A0931201B093130180E090E0A0ECB1EC1C
:100E400080930C0190930D01A0930E01B0930F01BC
:100E50008093080190930901A0930A01B0930B01BC
:100E60008093040190930501A0930601B0930701BC
:100E70008093000190930101A0930201B0930301BC
:100E800010928C0180918C018F5F80938C018091F6
:100E90007C008F5F80937C0080917C0083708093C6
:100EA0007C0080917A00806480937A00FF91EF91BA
:100EB000CF91BF91AF919F918F917F916F915F91F2
:100EC0004F913F912F91FF90EF90DF90CF90BF9087
:100ED000AF909F908F900F900FBE0F901F9018951E
:100EE000A501940160910C0170910D0180910E019A
:100EF00090910F010E941D0C87FF52CF80920C0130
:100F000090920D01A0920E01B0920F0149CFC13015
:100F1000D1F5AC019B01609118017091190180918C
:100F20001A0190911B010E941D0C87FF15C0809231
:100F3000180190921901A0921A01B0921B0120E0B1
:100F400030E040EA51E4C701B6010E94750D87FD0B
:100F500026C161E089E022CFA501940160910801DA
:100F60007091090180910A0190910B010E941D0C62
:100F700087FF16CF8092080190920901A0920A0182
:100F8000B0920B010DCFC230C9F520911401309100
:100F9000150140911601509117010E94750D181608
:100FA000ACF48092140190921501A0921601B092B7
:100FB000170120E030E040EA51E4C701B6010E9489
:100FC000750D87FD0DC161E08AE0E8CE2091040136
:100FD000309105014091060150910701C501B4010E
:100FE0000E94750D18160CF0DBCE809204019092D1
:100FF0000501A0920601B0920701D2CE2091100106
:101000003091110140911201509113010E94750D10
:1010100018160CF066C08092100190921101A092F7
:101020001201B092130120E030E040EA51E4C70120
:10103000B6010E94750D61E087FD60E08BE00E94C3
:10104000ED0181E00E94C401019709F0A9CE409111
:101050001C0150911D0160911E0170911F018CEACD
:1010600091E00E94D10467E871E08CEA91E00E946F
:10107000E103409118015091190160911A0170919A
:101080001B018CEA91E00E94D10467E871E08CEAD0
:1010900091E00E94E103409114015091150160918B
:1010A0001601709117018CEA91E00E94D10467E863
:1010B00071E08CEA91E00E94E103409110015091AF
:1010C0001101609112017091130122E08CEA91E00C
:1010D0000E94E30369E871E08CEA91E00E948603D4
:1010E0005FCE2091000130910101409102015091A9
:1010F0000301C501B4010E94750D18160CF0A1CFB3
:101100008092000190920101A0920201B09203012D
:1011100098CF82E00E94C401892B09F041CEC11111
:101120001FC0C0929F01D092A001E092A101F09255
:10113000A20120E030E040EA51E4C701B6010E947C
:10114000750D87FF29CE20E030E040EA51ECC70161
:10115000B6010E941D0C18160CF01ECE60E01DCECC
:10116000C130F9F4C0929B01D0929C01E0929D01A4
:10117000F0929E0120E030E040EA51E4C701B60160
:101180000E94750D87FFE5CE20E030E040EA51EC8B
:10119000C701B6010E941D0C18160CF0DACE60E0F3
:1011A000D9CEC230F9F4C0929701D0929801E09262
:1011B0009901F0929A0120E030E040EA51E4C70141
:1011C000B6010E94750D87FFFECE20E030E040EAB8
:1011D00051ECC701B6010E941D0C18160CF0F3CE9D
:1011E00060E0F2CEC0929301D0929401E09295011A
:1011F000F092960120E030E040EA51E4C701B601E8
:101200000E94750D87FD49C061E08BE00E94ED01F1
:1012100081E00E94C401019709F0C2CD40919F0175
:101220005091A0016091A1017091A2018CEA91E01E
:101230000E94D10467E871E08CEA91E00E94E1032A
:1012400040919B0150919C0160919D0170919E0184
:101250008CEA91E00E94D10467E871E08CEA91E0A9
:101260000E94E1034091970150919801609199018A
:1012700070919A018CEA91E00E94D10467E871E0D4
:101280008CEA91E00E94E103409193015091940116
:10129000609195017091960118CF20E030E040EA0E
:1012A00051ECC701B6010E941D0C18160CF0ACCF12
:1012B00060E0ABCFECEAF1E01382128288EE93E0BB
:1012C000A0E0B0E084839583A683B78384E291E0B5
:1012D0009183808385EC90E09587848784EC90E00F
:1012E0009787868780EC90E0918B808B81EC90E0F3
:1012F000938B828B82EC90E0958B848B86EC90E0D4
:10130000978B868B118E128E138E148EE9E4F2E089
:101310001382128286E391E09183808383E0848349
:1013200084E0858385E0868386E0878387E0808705
:101330000895789484B5826084BD84B5816084BD4D
:1013400085B5826085BD85B5816085BD80916E0063
:10135000816080936E001092810080918100826094
:1013600080938100809181008160809381008091D1
:1013700080008160809380008091B10084608093C0
:10138000B1008091B00081608093B00080917A00BC
:10139000846080937A0080917A00826080937A00E2
:1013A00080917A00816080937A0080917A008068D1
:1013B00080937A001092C10084E58093530280E309
:1013C00080935402109252021092550210925602CB
:1013D000E7E5F2E080E4DF011D928A95E9F780916C
:1013E0004D020E947C0180914E020E947C018091FE
:1013F0004F020E947C01809150020E947C018091EA
:1014000051020E947C0161E0809150020E94ED0136
:1014100061E0809151020E94ED0160E080915002F4
:101420000E94ED010E94400261E0809150020E9402
:10143000ED0141E260E089E492E00E94D40443E1DE
:1014400060E089E492E00E94D4048091520242EC70
:10145000813039F440EE60E089E492E00E94D404E7
:1014600045E060E089E492E00E94D40440E260E05C
:1014700089E492E00E94D40449E060E089E492E0CB
:101480000E94D4040E94210548E060E089E492E0D3
:101490000E94D4044CE060E089E492E00E94D4040D
:1014A0000E94400240E860E089E492E00E94D40497
:1014B00040E460E089E492E00E94D40480917A00E4
:1014C000876880937A0080917A00886080937A00A0
:1014D00088E00E947C0189E00E947C018AE00E94F1
:1014E0007C018BE00E947C01E091BC01F091BD0188
:1014F00082E08083E091B801F091B9011082E0911F
:10150000BA01F091BB0180E180831092C401E091A7
:10151000C001F091C10186E08083E091BE01F091AD
:10152000BF01808180618083E091BE01F091BF01A5
:10153000808188608083E091BE01F091BF0180814D
:1015400080688083E091BE01F091BF0180818F7D32
:1015500080830E94210580E00E9402056AE471E018
:1015600089E492E00E94E10380917A008064809394
:101570007A0082E00E94C401019709F076C081E000
:101580000E94020569E571E089E492E00E94E103AE
:1015900082E00E94020568E671E089E492E00E9420
:1015A000E10340911C0150911D0160911E01709159
:1015B0001F0189E492E00E94D10463E871E089E4AC
:1015C00092E00E94E10383E00E9402056CE671E074
:1015D00089E492E00E94E1034091180150911901C1
:1015E00060911A0170911B0189E492E00E94D1047C
:1015F00063E871E089E492E00E94E10384E00E94E4
:10160000020560E771E089E492E00E94E103409105
:10161000140150911501609116017091170189E430
:1016200092E00E94D10463E871E089E492E00E94B4
:10163000E10385E00E94020564E771E089E492E03D
:101640000E94E1034091100150911101609112013B
:101650007091130189E492E00E94D10463E871E083
:1016600089E492E00E94E10384CF82E00E94C401F9
:10167000892B09F07ECF81E00E94020568E771E0C6
:1016800089E492E00E94E10382E00E94020568E69C
:1016900071E089E492E00E94E10340919F01509142
:1016A000A0016091A1017091A20189E492E00E94E1
:1016B000D10463E871E089E492E00E94E10383E0F1
:1016C0000E9402056CE671E089E492E00E94E10369
:1016D00040919B0150919C0160919D0170919E01F0
:1016E00089E492E00E94D10463E871E089E492E029
:1016F0000E94E10384E00E94020560E771E089E452
:1017000092E00E94E103409197015091980160910D
:10171000990170919A0189E492E00E94D10463E8F2
:1017200071E089E492E00E94E10385E00E940205F5
:1017300064E771E089E492E00E94E1034091930143
:1017400050919401609195017091960183CFFB01B6
:10175000DC0102C005900D9241505040D8F7089529
:101760005058BB27AA270E94C80B0C943B0D0E941F
:101770002D0D38F00E94340D20F039F49F3F19F4FC
:1017800026F40C942A0D0EF4E095E7FB0C94240D3E
:10179000E92F0E944C0D58F3BA17620773078407AC
:1017A000950720F079F4A6F50C946E0D0EF4E095F3
:1017B0000B2EBA2FA02D0B01B90190010C01CA010B
:1017C000A0011124FF27591B99F0593F50F4503EB6
:1017D00068F11A16F040A22F232F342F4427585FA8
:1017E000F3CF469537952795A795F0405395C9F7C0
:1017F0007EF41F16BA0B620B730B840BBAF0915078
:10180000A1F0FF0FBB1F661F771F881FC2F70EC016
:10181000BA0F621F731F841F48F4879577956795E9
:10182000B795F7959E3F08F0B0CF9395880F08F0D5
:101830009927EE0F9795879508950E94000D08F45B
:1018400081E008950E94360C0C943B0D0E94340DEB
:1018500058F00E942D0D40F029F45F3F29F00C94C0
:10186000240D51110C946F0D0C942A0D0E944C0DF7
:1018700068F39923B1F3552391F3951B550BBB27BF
:10188000AA2762177307840738F09F5F5F4F220F04
:10189000331F441FAA1FA9F335D00E2E3AF0E0E8FB
:1018A00032D091505040E695001CCAF72BD0FE2F45
:1018B00029D0660F771F881FBB1F261737074807D9
:1018C000AB07B0E809F0BB0B802DBF01FF27935891
:1018D0005F4F3AF09E3F510578F00C94240D0C9424
:1018E0006F0D5F3FE4F3983ED4F386957795679547
:1018F000B795F7959F5FC9F7880F911D96958795C6
:1019000097F90895E1E0660F771F881FBB1F6217E4
:1019100073078407BA0720F0621B730B840BBA0BA2
:10192000EE1F88F7E09508950E94540D88F09F57A8
:1019300098F0B92F9927B751B0F0E1F0660F771FF3
:10194000881F991F1AF0BA95C9F714C0B13091F0E9
:101950000E946E0DB1E008950C946E0D672F782FE4
:101960008827B85F39F0B93FCCF3869577956795AE
:10197000B395D9F73EF490958095709561957F4F1A
:101980008F4F9F4F0895E89409C097FB3EF49095C0
:101990008095709561957F4F8F4F9F4F9923A9F048
:1019A000F92F96E9BB279395F695879577956795D7
:1019B000B795F111F8CFFAF4BB0F11F460FF1BC01B
:1019C0006F5F7F4F8F4F9F4F16C0882311F096E9AE
:1019D00011C0772321F09EE8872F762F05C066235C
:1019E00071F096E8862F70E060E02AF09A95660F15
:1019F000771F881FDAF7880F9695879597F90895CE
:101A0000990F0008550FAA0BE0E8FEEF161617060F
:101A1000E807F907C0F012161306E407F50798F077
:101A2000621B730B840B950B39F40A2661F0232B90
:101A3000242B252B21F408950A2609F4A140A6950C
:101A40008FEF811D811D089597F99F6780E870E0F1
:101A500060E008959FEF80EC089500240A94161624
:101A6000170618060906089500240A94121613068C
:101A7000140605060895092E0394000C11F488231A
:101A800052F0BB0F40F4BF2B11F460FF04C06F5F36
:101A90007F4F8F4F9F4F089557FD9058440F551F0C
:101AA00059F05F3F71F04795880F97FB991F61F0E0
:101AB0009F3F79F087950895121613061406551F57
:101AC000F2CF4695F1DF08C0161617061806991FC3
:101AD000F1CF86957105610508940895E894BB27B8
:101AE00066277727CB0197F908950E94000D08F427
:101AF0008FEF08950E948D0D0C943B0D0E942D0DCB
:101B000038F00E94340D20F0952311F00C94240D30
:101B10000C942A0D11240C946F0D0E944C0D70F33F
:101B2000959FC1F3950F50E0551F629FF001729F82
:101B3000BB27F00DB11D639FAA27F00DB11DAA1F91
:101B4000649F6627B00DA11D661F829F2227B00DDE
:101B5000A11D621F739FB00DA11D621F839FA00D69
:101B6000611D221F749F3327A00D611D231F849FB9
:101B7000600D211D822F762F6A2F11249F57504010
:101B80009AF0F1F088234AF0EE0FFF1FBB1F661F8B
:101B9000771F881F91505040A9F79E3F510580F054
:101BA0000C94240D0C946F0D5F3FE4F3983ED4F336
:101BB000869577956795B795F795E7959F5FC1F7F8
:101BC000FE2B880F911D9695879597F908950E9491
:101BD000000D880B990B089597FB072E16F40094BF
:101BE00007D077FD09D00E94220E07FC05D03EF4F5
:101BF000909581959F4F0895709561957F4F0895B9
:101C0000A1E21A2EAA1BBB1BFD010DC0AA1FBB1F00
:101C1000EE1FFF1FA217B307E407F50720F0A21B72
:101C2000B30BE40BF50B661F771F881F991F1A94DF
:101C300069F760957095809590959B01AC01BD0109
:101C4000CF010895AA1BBB1B51E107C0AA1FBB1FF0
:101C5000A617B70710F0A61BB70B881F991F5A9538
:101C6000A9F780959095BC01CD010895EE0FFF1F57
:0C1C70000590F491E02D0994F894FFCF4A
:101C7C000000C0C10000C0C10000C0C10000C0C154
:101C8C000000C0C10000C0C10000C0C10000C0C144
:101C9C000000000015037502A2026203D302B10218
:101CAC00C5020000000042057502830382036E61C9
:101CBC006E00696E66006F76660034636820766F1E
:101CCC006C746D65746572200020202041432028BF
:101CDC00524D53292020200056312000563220002E
:101CEC00563320005634200020202044432020204E
:0C1CFC00202020202020002C000D0A00D9
:00000001FF
